:100000000C945D000C94B20F0C948B0F0C94850033
:100010000C9485000C9485000C9485000C9485004C
:100020000C9485000C9485000C9485000C9485003C
:100030000C9485000C9485000C9485000C9485002C
:100040000C94D90F0C9485000C9449100C94231037
:100050000C9485000C9485000C9485000C9485000C
:100060000C9485000C9485000000000025002800F9
:100070002B0000000008000201000003040700003C
:1000800000000000000000000000240027002A00FB
:10009000010204081020408001020408102001021F
:1000A00004081020040404040404040402020202EC
:1000B00002020303030303037B1011241FBECFEFCF
:1000C000D8E0DEBFCDBF24E0ACE3B3E001C01D92B9
:1000D000A93FB207E1F713E0A0E0B1E0E6E8FBE3F7
:1000E00002C005900D92AC33B107D9F710E0CDE511
:1000F000D0E004C02197FE010E940C18CC35D10736
:10010000C9F70E9436110C94C11D0C9400003FB732
:10011000F8948091630390916403A0916503B0917A
:10012000660326B5A89B05C02F3F19F00196A11DB7
:10013000B11D3FBFBA2FA92F982F8827BC01CD0131
:10014000620F711D811D911D42E0660F771F881F90
:10015000991F4A95D1F708952FB7F89460915F03DE
:100160007091600380916103909162032FBF0895A5
:100170000E94AC0028EE33E040E050E00E94EA1715
:10018000CA01B9010895089508950895FC0181A553
:1001900092A523A534A5821B930B0895FC017587B6
:1001A0006487089508959FB7F89480916803882321
:1001B00019F081508093680380916803811105C014
:1001C0008CB58F7B8CBD10926A039FBF0895809180
:1001D0006A03882361F09FB7F89420916A038091A5
:1001E0006703213019F48DBB9FBF08958FBF089519
:1001F0008EBD00000DB407FEFDCF8EB50895209191
:100200006A03222381F03FB7F89420916A032130DA
:1002100069F42DB3209367034DB3209169032095B2
:1002200024232DBB3FBF8CBD9DBD08953093670334
:10023000FACF90E080E0089590E080E0089590E0AB
:1002400080E00895CF93DF93EC01E881F981008489
:10025000F185E02D0995892B49F08BA59CA5C80F48
:10026000D91F8DA590E0DF91CF9108958FEF9FEF7B
:10027000FACFCF93DF93EC01E881F9810084F18517
:10028000E02D0995892B71F08BA59CA59C012F5F12
:100290003F4F3CA72BA7C80FD91F8DA590E0DF913A
:1002A000CF9108958FEF9FEFFACFCF93DF931F92F7
:1002B000CDB7DEB76983DC01ED91FC910280F3815B
:1002C000E02D41E050E0BE016F5F7F4F09950F9038
:1002D000DF91CF910895FC018685882351F0168621
:1002E0008589968997FD02C0908F878B81E090E089
:1002F000089590E080E00895FC0116868FEF9FEF4F
:10030000DC018787908BA18BB28B148A168A158AA1
:10031000108E178A81A392A3A3A3B4A316A210A63A
:1003200017A212A611A614A613A681E090E00895C4
:1003300090E0FC01EE58FF4F2491FC01E057FF4F85
:100340003491FC01EC55FF4FE491EE23C9F02223D8
:1003500039F0233001F1A8F4213019F1223029F1CC
:10036000F0E0EE0FFF1FE859FF4FA591B4918FB752
:10037000F894EC91611126C030953E233C938FBFD9
:1003800008952730A9F02830C9F0243049F780912A
:1003900080008F7D03C0809180008F7780938000E4
:1003A000DFCF84B58F7784BDDBCF84B58F7DFBCF66
:1003B0008091B0008F778093B000D2CF8091B00051
:1003C0008F7DF9CF3E2BDACF0F931F93CF93DF931F
:1003D000EC01062F142F8DA99EA90E94FF0060E05A
:1003E0008FA90E94980182E00E94F800802F0E944D
:1003F000F800812F0E94F80061E08FA90E94980107
:10040000DF91CF911F910F910C94E700FF920F9312
:100410001F93CF93DF93EC01F62E042F122F8DA99B
:100420009EA90E94FF0060E08FA90E94980185E0CC
:100430000E94F8008F2D0E94F800802F0E94F80083
:10044000812F0E94F80061E08FA90E949801DF913E
:10045000CF911F910F91FF900C94E7001F93CF93C2
:10046000DF93EC01162F8DA99EA90E94FF0060E08A
:100470008FA90E94980183E00E94F800812F0E94BA
:10048000F80080E00E94F800182F61E08FA90E9418
:1004900098010E94E700812FDF91CF911F9108956D
:1004A0008F929F92AF92BF92CF92DF92EF92FF9284
:1004B0000F931F93CF93DF93CDB7DEB7C850D140D2
:1004C0000FB6F894DEBF0FBECDBF28E031E0EAE002
:1004D000F1E0DE01119601900D9221503040D9F7E4
:1004E000FC01C3ACD4ACE5ACF6ACFE01319630E017
:1004F00020E080809180A280B3808C149D04AE04A3
:10050000BF0409F067C084809580A680B7808416F8
:100510009506A606B70609F05DC08C018BE0829FA8
:100520007001839FF00C1124F8E0EF0EF11C81E0C4
:1005300090E08C0F9D1FE80EF91EF70140816AE2E2
:10054000C8010E94E401F701418169E2C8010E94EB
:10055000E401F701428168E2C8010E94E40143E03E
:100560006BE2C8010E94E40140E06CE0C8010E9417
:10057000E40140E06DE0C8010E94E40140E660E66D
:10058000C8010E94E40140E660E7C8010E94E4015E
:1005900040E06FE0C8010E94E4016FE0C8010E94E2
:1005A0002E0221E090E0811120E0822FC85FDE4F13
:1005B0000FB6F894DEBF0FBECDBFDF91CF911F9174
:1005C0000F91FF90EF90DF90CF90BF90AF909F90F2
:1005D0008F9008952F5F3F4F3B962831310509F0EA
:1005E00088CF80E090E0E2CFCF93DF93EC0140E052
:1005F0006FE00E94E4016FE0CE010E942E0221E034
:1006000030E0882311F030E020E0C901DF91CF9184
:100610000895CF93DF93EC0141E06FE00E94E40185
:100620006FE0CE010E942E0221E030E0813011F017
:1006300030E020E0C901DF91CF910895CF93DF939F
:10064000EC0140E46FE00E94E4016FE0CE010E9403
:100650002E0221E030E0803411F030E020E0C901CA
:10066000DF91CF910895CF93DF93EC0140E86FE0E5
:100670000E94E4016FE0CE010E942E0221E030E0F2
:10068000803811F030E020E0C901DF91CF9108956A
:100690004F925F926F927F928F929F92AF92BF9292
:1006A000CF92DF92EF92FF920F931F93CF93DF933E
:1006B00000D000D000D0CDB7DEB79E838D834A0135
:1006C0005B016801790140E86FE00E94E4016FE09E
:1006D0008D819E810E942E02803809F0DCC08FE15E
:1006E000B8229FE1F92240E460E68D819E810E945C
:1006F000E40140E460E68D819E810E94E4012601D0
:10070000370185E175946794579447948A95D1F79A
:10071000442D60E28D819E810E94E4011E2D1370A4
:100720001860B701A60192E17595679557954795B1
:100730009A95D1F725E0440F551F661F771F2A951C
:10074000D1F74076142B412F61E28D819E810E946A
:10075000E401BB27F7FCBA95AF2D9E2D8D2D898323
:100760009A83AB83BC83498162E28D819E810E9422
:10077000E4014C2D63E28D819E810E94E40140E4FE
:1007800060E78D819E810E94E40140E460E78D81F5
:100790009E810E94E401442D64E28D819E810E942D
:1007A000E401412F65E28D819E810E94E40149812F
:1007B00066E28D819E810E94E4014C2D67E28D816D
:1007C0009E810E94E401D501C40145E1B595A7953C
:1007D000979587954A95D1F7E82EB501A401E2E1F6
:1007E0007595679557954795EA95D1F7F5E0440FCC
:1007F000551F661F771FFA95D1F740768A2D8370B3
:10080000F82E6894F3F8F42AD92C10E04E2D612FBD
:100810008D819E810E94E40161E0610F4F2D8D81E9
:100820009E810E94E40162E0610F4D2D8D819E81C9
:100830000E94E40163E0610F482D8D819E810E943A
:10084000E4011C5F183111F740E06FE08D819E815B
:100850000E94E4016FE08D819E810E942E0221E0C2
:1008600090E0811120E0822F26960FB6F894DEBF2B
:100870000FBECDBFDF91CF911F910F91FF90EF90F1
:10088000DF90CF90BF90AF909F908F907F906F90B0
:100890005F904F90089580E090E0E6CFCF92DF9296
:1008A000EF92FF920F931F93CF93DF93EC017B01A5
:1008B0008A0140E86FE00E94E4016FE0CE010E94EF
:1008C0002E02803809F084C087E0F822177040E2D9
:1008D00060E6CE010E94E40140E260E6CE010E94A3
:1008E000E401680183E0D594C7948A95E1F74C2D23
:1008F00060E2CE010E94E4010295000F007E402FCD
:1009000061E2CE010E94E40140E062E2CE010E9479
:10091000E40140E063E2CE010E94E40140E260E7CE
:10092000CE010E94E40140E260E7CE010E94E401B2
:100930004C2D64E2CE010E94E401402F65E2CE011D
:100940000E94E40140E066E2CE010E94E40140E042
:1009500067E2CE010E94E401870193E015950795B7
:100960009A95E1F7E294EE0C20EEE22210E0402F9F
:10097000612FCE010E94E40161E0610F4E2DCE0196
:100980000E94E40162E0610F40E0CE010E94E401B8
:1009900063E0610F40E0CE010E94E4011C5F18316A
:1009A00031F740E06FE0CE010E94E4016FE0CE013C
:1009B0000E942E0221E090E0811120E0822FDF9141
:1009C000CF911F910F91FF90EF90DF90CF900895FE
:1009D00080E090E0F4CF9F92AF92BF92CF92DF92EF
:1009E000EF92FF920F931F93CF93DF93EC016CE292
:1009F0000E942E0280FD1DC0BB24B39481FD1AC04D
:100A00008FEF9FEFDC0189A39AA3ABA3BCA31DA228
:100A10001EA21AA619A690E080E0DF91CF911F9147
:100A20000F91FF90EF90DF90CF90BF90AF909F908D
:100A30000895B12C1B2D1295107F02E6010F602F37
:100A4000CE010E942E0283FB882780F98DA361E6E8
:100A5000610FCE010E942E02C82E602FCE010E948F
:100A60002E0228E0C29E6001112490E045E0959599
:100A700087954A95E1F7C82AD92A55E6A52EA10EF1
:100A80008DA10D2C000CEE08FF08882309F45AC034
:100A9000602FCE010E942E02982E63E6610FCE01D8
:100AA0000E942E02082F64E6610FCE010E942E02E2
:100AB000492D50E070E060E0BA01552744274427F3
:100AC00055276370772722E1CC0CDD1CEE1CFF1C40
:100AD0002A95D1F7C82A4C295D296E297F29C02E75
:100AE000D12CDC2CCC24F12CE12C4C295D296E2955
:100AF0007F2949A35AA36BA37CA36A2DCE010E9430
:100B00002E0286FB882780F98EA36A2DCE010E94D3
:100B10002E028F7090E098A78FA31CA61BA62EA173
:100B20002223D9F01AA619A641E050E001C0440FD3
:100B3000BA94EAF720E06CE2CE010E9406028FA18F
:100B400098A56BCFC9A2DAA2EBA2FCA2602FCE01BE
:100B50000E942E0282958170D7CF9AA789A71A5931
:100B60007E01C7018C1B9D0BEFEFEE1AFE0A29A533
:100B70003AA582179307C4F6612FCE010E942E0278
:100B8000F70184A71F5FEDCF6CE28BE693E00E9434
:100B90002E028823B1F08BE693E00E94EB04892BB0
:100BA00081F0809194039091950320919603309168
:100BB0009703E0917703F0917803821B930B0995DB
:100BC000EACF0895EF92FF920F931F93CF93DF9395
:100BD000EC010E946B01009709F4B3C04F8558895E
:100BE00069897A898B89882309F45DC095E17595B7
:100BF0006795579547959A95D1F761E3CE010E9485
:100C0000E4010F85188929893A89D901C80132E19F
:100C1000B595A795979587953A95D1F745E0880FB3
:100C2000991FAA1FBB1F4A95D1F7422F4370482B2B
:100C3000486062E3CE010E94E4014F8558896989CA
:100C40007A89452F562F672F772767FD7A9563E3BB
:100C5000CE010E94E4014F8564E3CE010E94E401CD
:100C60004F898C898823C9F1406465E3CE010E94D5
:100C7000E40148E060E3CE010E94E40110E060E39B
:100C8000CE010E942E0283FF43C060E3CE010E948A
:100C90002E0284FFF4CF20E140E16FE0CE010E94FC
:100CA000060211E0ECCF83E075956795579547955F
:100CB0008A95D1F761E3CE010E94E4014F85429508
:100CC000440F407E62E3CE010E94E40140E063E312
:100CD000CE010E94E40140E0BFCF65E3CE010E9457
:100CE000E4017E0189E1E80EF11C10E000E08F894B
:100CF000988D081719070CF0BCCFF70141917F01BF
:100D000066E3600FCE010E94E4010F5F1F4FEFCF3B
:100D1000112331F020E040E16FE0CE010E94060295
:100D200020E044E06CE2CE010E94060260E3CE01C6
:100D30000E942E02807731E020E009F030E0832F1E
:100D4000922FDF91CF911F910F91FF90EF90089517
:100D5000CF93DF9390E0FC01E057FF4F24918C5537
:100D60009F4FFC0184918823D1F090E0880F991F58
:100D7000FC01EA57FF4FA591B491FC01E859FF4FE0
:100D8000C591D49161110EC09FB7F8948C91E22F58
:100D9000E0958E238C932881E223E8839FBFDF9127
:100DA000CF9108958FB7F894EC91E22BEC938FBF1D
:100DB000F6CF0F931F93CF93DF93EC018B017D87C9
:100DC0006C8760E089AD0E94A80689AD9AAD012BC1
:100DD00009F448C082309105A1F10397A1F18FEF8A
:100DE0002FB7F89491E0882339F092E0813021F018
:100DF00082E080936A0390E080916903892B80935D
:100E0000690380916A03811103C081E080936A03C2
:100E10002FBF89AD9AAD82309105B9F0039761F487
:100E200084EC95E090930301809302018091690026
:100E3000837F80936900E99ADF91CF911F910F9191
:100E4000089580E0CDCF81E0CBCF84EC95E0909306
:100E5000010180930001809169008C7F809369007B
:100E6000E89AEACF8230910511F1039761F4E9988D
:100E700081E090E0880F991FFC01E050FF4F83EC68
:100E800090E09183808389AD9AAD8230910599F08D
:100E9000039799F08FEF90916A03923069F29FB7B0
:100EA000F894882361F08130B9F080E009C0E898B7
:100EB00090E080E0DFCF80E0EECF81E0ECCF81E01A
:100EC000809520916903822380936903811102C078
:100ED00010926A039FBFB0CF82E0F2CFCF92DF9231
:100EE000EF92FF921F93CF93DF93EC016A017B0196
:100EF0000E947C0161E08FA90E94A8061FB7F894A8
:100F000080916803811127C0EEEAF0E08491EAE95C
:100F1000F0E09491E82FF0E0EE0FFF1FEA57FF4F4B
:100F2000A591B491EC91E92321F461E08AE00E945B
:100F3000980161E08AE00E94A8068CB580618CBDB2
:100F40008CB580648CBD61E08DE00E94A80661E0F4
:100F50008BE00E94A806809168038F5F80936803EE
:100F60001FBF8DA99EA90E94FF0060E08FA90E946B
:100F7000980180EC0E94F80061E08FA90E9498011E
:100F80000E94E70083E290E00197F1F740E86FE00C
:100F9000CE010E94E4016FE0CE010E942E02803853
:100FA00061F4B701A601CE01DF91CF911F91FF90AF
:100FB000EF90DF90CF900C94500290E080E0DF91B2
:100FC000CF911F91FF90EF90DF90CF9008958F9277
:100FD0009F92AF92BF92CF92DF92EF92FF924B011E
:100FE0005C010E9487006B017C010E9487006C19E4
:100FF0007D098E099F09683E734081059105A8F31C
:1010000021E0821A9108A108B10888EEC80E83E099
:10101000D81EE11CF11C81149104A104B10429F72C
:10102000FF90EF90DF90CF90BF90AF909F908F9008
:101030000895AF92BF92CF92DF92EF92FF920F93FB
:101040001F93CF93DF936C017B018B01040F151F5E
:10105000EB015E01AE18BF08C017D10759F06991C6
:10106000D601ED91FC910190F081E02DC60109952A
:10107000892B79F7C501DF91CF911F910F91FF90D7
:10108000EF90DF90CF90BF90AF900895FC01448126
:101090005581608171818DED94E00C941908FC01FB
:1010A000538D448D252F30E0842F90E0821B930BCD
:1010B000541710F0CF96089501970895FC01918D73
:1010C000828D981761F0A28DAE0FBF2FB11D5D9676
:1010D0008C91928D9F5F9F73928F90E008958FEF18
:1010E0009FEF0895FC01918D828D981731F0828DCC
:1010F000E80FF11D858D90E008958FEF9FEF089523
:10110000FC01918D228D892F90E0805C9F4F821B86
:1011100091098F73992708958AEA93E00E948008C5
:1011200021E0892B09F420E0822F089580E090E0EF
:10113000892B29F00E948C0881110C9400000895DD
:10114000FC01A48DA80FB92FB11DA35ABF4F2C913C
:10115000848D90E001968F739927848FA689B78933
:101160002C93A089B1898C91837080648C93938D2A
:10117000848D981306C00288F389E02D80818F7DCD
:1011800080830895EF92FF920F931F93CF93DF9385
:10119000EC0181E0888F9B8D8C8D98131AC0E889B3
:1011A000F989808185FF15C09FB7F894EE89FF8982
:1011B0006083E889F98980818370806480839FBF20
:1011C00081E090E0DF91CF911F910F91FF90EF9020
:1011D0000895F62E0B8D10E00F5F1F4F0F73112730
:1011E000E02E8C8D8E110CC00FB607FCFACFE8896B
:1011F000F989808185FFF5CFCE010E94A008F1CF4B
:10120000EB8DEC0FFD2FF11DE35AFF4FF0829FB7DE
:10121000F8940B8FEA89FB8980818062CFCFCF93CE
:10122000DF93EC01888D8823B9F0AA89BB89E8890E
:10123000F9898C9185FD03C0808186FD0DC00FB6B4
:1012400007FCF7CF8C9185FFF2CF808185FFEDCF32
:10125000CE010E94A008E9CFDF91CF9108950895B3
:1012600090E080E0089508950F931F93DC01ED91C5
:10127000FC91068CF78DE02D0FEF1FEF2FEF3FE174
:1012800009951F910F910895DC01ED91FC91028C5D
:10129000F38DE02D4FEF57E009942F923F924F923C
:1012A0005F926F927F928F929F92AF92BF92CF92F6
:1012B000DF92EF92FF920F931F93CF93DF9300D0B3
:1012C0001F92CDB7DEB7582E262E79830E94AC0030
:1012D00000914E0410914F0420915004309151041C
:1012E000DC01CB01801B910BA20BB30B8C3391055E
:1012F000A105B10570F40CE310E020E030E06801D6
:101300007901C81AD90AEA0AFB0AC701B6010E9484
:10131000E7072AE030E03B832A83442443948FED9F
:10132000C82E87E0D82EE12CF12C98E0692E712C84
:1013300004E813E028E0322E31EF832E33E3932EBE
:101340003BEDA32E38E1B32E80914D0440927903FA
:10135000882309F44DC080927A0390927B03A09277
:101360007C03B0927D0340927E0310927F037092C3
:101370008103609280031092830310928203F8012C
:10138000232D11922A95E9F762E08BE693E00E9403
:10139000550161E08BE693E00E945501652D8BE6D7
:1013A00093E00E9455018BE693E00E94E205892BB1
:1013B00051F58A819B8101979B838A83892B21F632
:1013C00080E090E00F900F900F90DF91CF911F91F0
:1013D0000F91FF90EF90DF90CF90BF90AF909F90D4
:1013E0008F907F906F905F904F903F902F900895D7
:1013F000C0927A03D0927B03E0927C03F0927D034B
:1014000010927E03B2CF0E94AC006B017C01E52DEF
:10141000F0E0FB83EA830E94AC006C197D098E0921
:101420009F090091490410914A0420914B04309186
:101430004C04601771078207930710F68BE693E060
:101440000E94EB04892B39F38BE693E00E9439016B
:10145000892B09F38BE693E00E94390181349105D1
:10146000D1F68BE693E00E9439012A813B818217F5
:10147000930789F60E94AC0060934E0470934F046A
:101480008093500490935104022D19811B821A827B
:101490000E94AC0060937303709374038093750390
:1014A000909376038BE693E00E94390197FF1EC06C
:1014B0000E94AC00C0907303D0907403E090750359
:1014C000F09076036C197D098E099F09C0906F0317
:1014D000D0907003E0907103F09072036C157D055D
:1014E0008E059F05F8F28A819B816CCFF80181936C
:1014F0008F012A813B812F5F3F4F3B832A8324301A
:10150000310531F6F0CF0F931F93CF93DF9300D0C7
:1015100000D0CDB7DEB710E000E0BE016F5F7F4FB7
:10152000802F0E944D09049759F090E080E00F90C1
:101530000F900F900F90DF91CF911F910F91089511
:1015400069817A818B819C810E941218F80125E0C3
:10155000F595E7952A95E1F7EE0FFF1FEE0FFF1FB8
:10156000E95BFB4F638774878587968760FF05C0BB
:10157000005E1F4F003E110581F681E090E0D7CF5D
:10158000CF92DF92EF92FF921F93CF93DF9300D021
:1015900000D0CDB7DEB7882309F1282F30E0F9015C
:1015A000319795E0F595E7959A95E1F7EE0FFF1FD6
:1015B000EE0FFF1FE95BFB4F3195219531092F712C
:1015C0003327438554856585768504C07695679570
:1015D000579547952A95D2F740FF8EC2182FBE0126
:1015E0006F5F7F4F0E944D09892B09F485C213500C
:1015F0001D3508F063C0E12FF0E0EF5FF44F0C946D
:101600000C18670B8D0BB00BBB0BBB0BBB0BBB0BD9
:10161000BD0B980BCA0B980BE90BB00BFA0B8D0B9B
:10162000980B980B9D0B9D0B9D0B9D0B9D0B9D0B84
:101630009D0B9D0B980B980B980B670B5E0B670B24
:101640001B0C3A0CD70CD70CD70CD70CD70CD70CDB
:10165000D70CD70C8D0BBB0B8D0B8D0B980B670B21
:10166000590C980BD70CD70CD70CD70CD70CD70C20
:10167000D70CD70C7C0C7C0C7C0C7C0C5E0B5E0BB2
:101680009D0CBC0CD70C8D0BB00B8D0B8D0B8D0BEB
:101690008D0B8D0B8D0B670B670B5E0B5E0B980B29
:1016A0008D0BFA0C190D5E0B5E0B5E0B5E0B3A0C8C
:1016B0008D0B8D0BB00B380D5D0D980B69817A8108
:1016C0008B819C810E9412180E94B8161AC06981F1
:1016D00070E090E080E00E94BA1620E030E040E840
:1016E00053E40E94F5166B017C016A8170E090E082
:1016F00080E00E94BA169B01AC01C701B6010E94AE
:101700001A180F900F900F900F90DF91CF911F91AB
:10171000FF90EF90DF90CF900895698170E090E0A6
:1017200080E00E94BA1623E333E343E250E480C032
:10173000698170E090E080E0C7CF6A8170E090E05E
:1017400080E00E94BA162AE037ED43EA5FE30E9488
:10175000861820E030E048EC52E40E941918D1CFFE
:10176000698170E090E080E00E94BA1620E030E0ED
:1017700040E252E4F2CF6981E1CF698170E090E00C
:1017800080E00E94BA1620E030E040E450E40E947D
:10179000F516B7CF698170E090E080E00E94BA163C
:1017A00020E030E040E853E40E94F5166B017C0134
:1017B0006A8170E090E080E00E94BA169B01AC0163
:1017C000C701B6010E941A1820E030E040E85EE34D
:1017D000DECF698170E090E080E00E94BA1620E0E0
:1017E00030E040E05FE30E94F51620E030E040E8A2
:1017F00052E4B3CF698170E090E080E00E94BA16B5
:1018000020E030E040E853E40E94F5166B017C01D3
:101810006A8170E090E080E00E94BA169B01AC0102
:10182000C701B6010E941A1820E030E048EC52E4EB
:101830000E94861866CF698170E090E080E00E9487
:10184000BA1620E030E040E853E40E94F5166B0140
:101850007C016A8170E090E080E00E94BA169B01F2
:10186000AC01C701B6010E941A1821EC3AEC41EA1A
:101870005DE38DCF698170E090E080E00E94BA1650
:1018800020E030E040E853E40E94F5166B017C0153
:101890006A8170E090E080E00E94BA169B01AC0182
:1018A000C701B6010E941A1820E030E040E251E47E
:1018B0006ECF698170E090E080E00E94BA1620E06F
:1018C00030E040E853E40E94F5166B017C016A8128
:1018D00070E090E080E00E94BA169B01AC01C70165
:1018E000B6010E941A180E94F818072E000C880BE7
:1018F000990B0E94BA1668CF698170E090E080E091
:101900000E94BA1620E030E040E853E40E94F51649
:101910006B017C016A8170E090E080E00E94BA1661
:101920009B01AC01C701B6010E941A1820E030E00B
:1019300040E251E40E94861819CF698170E090E07E
:1019400080E00E94BA1620E030E040E853E40E94B4
:10195000F5166B017C016A8170E090E080E00E94E6
:10196000BA169B01AC01C701B6010E941A1820E00B
:1019700030E04AE754E45CCF698170E090E080E0B9
:101980000E94BA1620E030E040E853E40E94F516C9
:101990006B017C016A8170E090E080E00E94BA16E1
:1019A0009B01AC01C701B6010E941A18BCCE698127
:1019B00070E090E080E00E94BA1620E030E040E85D
:1019C00053E40E94F5166B017C016A8170E090E09F
:1019D00080E00E94BA169B01AC01C701B6010E94CB
:1019E0001A189B01AC010E941A1820E030E040E870
:1019F00057E3CDCE698170E090E080E00E94BA1696
:101A000020E030E040E853E40E94F5166B017C01D1
:101A10006A8170E090E080E00E94BA169B01AC0100
:101A2000C701B6010E941A1820E030E048E453E4F0
:101A3000FFCE698170E090E080E00E94BA1620E05D
:101A400030E040E853E40E94F5166B017C016A81A6
:101A500070E090E080E00E94BA169B01AC01C701E3
:101A6000B6010E941A1820E03EEF4FEF56E475CE03
:101A7000698170E090E080E00E94BA1620E030E0DA
:101A800040E853E40E94F5166B017C016A8170E026
:101A900090E080E00E94BA169B01AC01C701B6013C
:101AA0000E941A1820E030E040E05CE30E94F51646
:101AB00020E030E042E553E450CE698170E090E0F0
:101AC00080E00E94BA1620E030E040E853E40E9433
:101AD000F5166B017C016A8170E090E080E00E9465
:101AE000BA169B01AC01C701B6010E941A1820E08A
:101AF00030E040EA51E49CCE60E070E080EC9FE78B
:101B000000CECF93DF93EC0160E08E810E949801BC
:101B100061E08E810E94980160E08E810E949801B0
:101B20008BE891E00197F1F7DF91CF910895CF9283
:101B3000DF92EF92FF920F931F93CF93DF936C018D
:101B40007C0187E0E80EF11CD0E0C0E0062F10E039
:101B5000B8010C2E02C0759567950A94E2F7617082
:101B6000F70181917F010E9498012196C430D1052F
:101B700079F7C601DF91CF911F910F91FF90EF9000
:101B8000DF90CF900C94810DCF92DF92EF92FF9275
:101B90000F931F93CF93DF93EC01F62E642F8C816C
:101BA0000E9498018D818F3F19F060E00E9498019A
:101BB0000F2D10E08F8584FF25C06E0187E0C80ED1
:101BC000D11CF12CE12CB8010E2C02C07595679543
:101BD0000A94E2F76170F60181916F010E94980109
:101BE000FFEFEF1AFF0A88E0E816F10461F7CE0173
:101BF000DF91CF911F910F91FF90EF90DF90CF90E9
:101C00000C94810DB80184E0759567958A95E1F78C
:101C1000CE010E94970D6F2DCE01DF91CF911F91C4
:101C20000F91FF90EF90DF90CF900C94970D40E0D4
:101C3000682F8DED94E00C94C40D81E00E94170E86
:101C40008BE39FE10197F1F70895CF93DF93613024
:101C500029F09091EC0498609093EC046093F00468
:101C60001092F10490E49093F2048093F304805C6A
:101C70008093F40461E08091E1040E94A8068091C1
:101C8000E2048F3F19F061E00E94A80661E08091B4
:101C9000E3040E94A806CDEDD4E09E012D5D344002
:101CA0008091EC0484FD0BC084E090E0219628171D
:101CB000390744F461E08E810E94A806EECF88E0E7
:101CC00090E0F4CF8BE39DE00197F1F760E0809125
:101CD000E1040E94980160E08091E3040E94980171
:101CE0008091E2048F3F19F060E00E94980180919A
:101CF000EC0484FD34C063E08DED94E00E94970D08
:101D0000CBE4D6E4CE010197F1F763E08DED94E0EA
:101D10000E94970D2197F1F763E08DED94E00E940A
:101D2000970D83E592E00197F1F762E08DED94E085
:101D30000E94970D8091EC0480620E94170E84E04F
:101D40008093ED048CE00E94170E0E941D0E82E02D
:101D50008093EE0486E0DF91CF910C94170E8062A1
:101D60000E94170E8BE496E40197F1F78091EC0442
:101D700080620E94170E83E592E00197F1F780914F
:101D8000EC0480620E94170ED5CF9091F004691781
:101D900010F06FEF690FE62FF0E0E352FB4F9489EC
:101DA000890F80680C94170E41E00E94C40D81E0F9
:101DB00090E008950C94CA190C94CA19FC01808112
:101DC0009181009711F00C94CA1908950C94CA19C6
:101DD0000F931F93CF93DF93FC012685D0E0C0E0E3
:101DE0002223C9F02789308DC8E0D0E0C21BD30B75
:101DF0004C175D0708F4EA018C01C9014996AE0150
:101E0000800F911F0E94101BF8018789908D8C0F05
:101E10009D1F908F878BCE01DF91CF911F910F91E6
:101E20000895FB0101900020E9F73197AF01461BAF
:101E3000570BDC01ED91FC910280F381E02D0994B8
:101E4000CF93DF93BC018AEA93E00E94110FEC016B
:101E500068E672E08AEA93E00E94110F8C0F9D1FE2
:101E6000DF91CF9108950C94110F0F931F93CF938F
:101E7000DF93EC01CB01BA010E94F8187F936F93B6
:101E80008BE692E09F938F930CE313E01F930F93E5
:101E90000E94201B198218821B821A821D821C82BA
:101EA000F80101900020E9F78F010D531340B801AC
:101EB0006F5F7F4F90E080E00E94531A0F900F9069
:101EC0000F900F900F900F90009799F0998388834F
:101ED0001B830A832C813D81232B11F4FC0110828A
:101EE0001D830C836CE373E0888199810E94191B28
:101EF0000CC088819981009711F00E94CA1919823B
:101F000018821D821C821B821A82CE01DF91CF9122
:101F10001F910F9108951F920F920FB60F921124E7
:101F20002F933F934F935F936F937F938F939F93E1
:101F3000AF93BF93EF93FF93E0910201F091030100
:101F40000995FF91EF91BF91AF919F918F917F91F3
:101F50006F915F914F913F912F910F900FBE0F9016
:101F60001F9018951F920F920FB60F9211242F9366
:101F70003F934F935F936F937F938F939F93AF9311
:101F8000BF93EF93FF93E0910001F0910101099558
:101F9000FF91EF91BF91AF919F918F917F916F9141
:101FA0005F914F913F912F910F900FBE0F901F9017
:101FB00018951F920F920FB60F9211242F933F93F3
:101FC0008F939F93AF93BF9380915F039091600332
:101FD000A0916103B091620330915E0323E0230F6F
:101FE0002D3758F50196A11DB11D20935E038093F6
:101FF0005F0390936003A0936103B09362038091A9
:10200000630390916403A0916503B0916603019608
:10201000A11DB11D8093630390936403A093650396
:10202000B0936603BF91AF919F918F913F912F9194
:102030000F900FBE0F901F90189526E8230F029661
:10204000A11DB11DD2CF1F920F920FB60F92112476
:102050002F933F934F935F936F937F938F939F93B0
:10206000AF93BF93EF93FF938AEA93E00E94A00897
:10207000FF91EF91BF91AF919F918F917F916F9160
:102080005F914F913F912F910F900FBE0F901F9036
:1020900018951F920F920FB60F9211242F938F93C2
:1020A0009F93EF93FF93E091BA03F091BB0380817C
:1020B000E091C003F091C10382FD1BC0908180912B
:1020C000C3038F5F8F732091C403821741F0E091A7
:1020D000C303F0E0E655FC4F958F8093C303FF9157
:1020E000EF919F918F912F910F900FBE0F901F90A6
:1020F00018958081F4CF1F93CF93DF93EBE6F3E045
:10210000138212821586148616868FEF9FEFDC01EC
:102110008787908BA18BB28B11E0138B148A168A60
:10212000158A108E178A81A392A3A3A3B4A315A224
:1021300016A210A617A212A611A614A613A6148200
:1021400015821682178286E192E09183808380E572
:1021500085AB16AB8AE090E090AF87AB82E090E071
:1021600092AF81AF80E092E1AAE7B0E083AF94AF95
:10217000A5AFB6AFEAEAF3E01382128288EE93E0ED
:10218000A0E0B0E084839583A683B78386E492E0E1
:102190009183808385EC90E09587848784EC90E040
:1021A0009787868780EC90E0918B808B81EC90E024
:1021B000938B828B82EC90E0958B848B86EC90E005
:1021C000978B868B118E128E138E148EE7E4F4E0BB
:1021D00088E592E09183808380ED97E0A0E0B0E015
:1021E00082839383A483B583178210861186128617
:1021F000E2E5F4E080E8DF011D928A95E9F7EDED74
:10220000F4E01382128280E692E09183808380E181
:1022100084839FEF958393E1968392E0978393E085
:10222000908794E0918795E0928796E0938797E076
:10223000948798E0958799E09687878761E00E9468
:10224000250EC2EDD4E08CEA90E0998788870E9441
:10225000AC00688379838A839B831C821D821E82E3
:102260001F821A87DF91CF911F910895CF93DF933B
:10227000CDB7DEB72A970FB6F894DEBF0FBECDBF3D
:10228000789484B5826084BD84B5816084BD85B551
:10229000826085BD85B5816085BD80916E0081605D
:1022A00080936E0010928100809181008260809303
:1022B0008100809181008160809381008091800005
:1022C0008160809380008091B10084608093B10030
:1022D0008091B00081608093B00080917A0084602A
:1022E00080937A0080917A00826080937A00809156
:1022F0007A00816080937A0080917A008068809370
:102300007A001092C100E091BA03F091BB0382E021
:102310008083E091B603F091B7031082E091B80397
:10232000F091B9038FEC80831092C203E091BE0359
:10233000F091BF0386E08083E091BC03F091BD0380
:10234000808180618083E091BC03F091BD03808136
:1023500088608083E091BC03F091BD038081806838
:102360008083E091BC03F091BD0380818F7D8083E9
:1023700064E084E10E94250E0E941D0E60E080E072
:102380000E94C50E6FE672E08DED94E00E94330F5F
:1023900061E080E00E94C50E64E872E08DED94E09B
:1023A0000E94330F62E080E00E94C50E64E872E094
:1023B0008DED94E00E94330F63E080E00E94C50E33
:1023C0006FE672E08DED94E00E94330F61E088E0EB
:1023D0000E94C50E64EF71E080E090E00E94E70784
:1023E00069E972E08DED94E00E94330F64E670E0DD
:1023F00080E090E00E94E7076BE972E08DED94E0E9
:102400000E94330F64E670E080E090E00E94E707EE
:102410006DE972E08DED94E00E94330F64E670E0A8
:1024200080E090E00E94E7076BE972E08DED94E0B8
:102430000E94330F64E670E080E090E00E94E707BE
:1024400069E972E08DED94E00E94330F64E670E07C
:1024500080E090E00E94E7076FE972E08DED94E084
:102460000E94330F61E088E00E94C50E68EE73E0C1
:1024700080E090E00E94E70761EE72E08DED94E06D
:102480000E94330F64E670E080E090E00E94E7076E
:1024900061EE72E08DED94E00E94330F64E670E02F
:1024A00080E090E00E94E70761EE72E08DED94E03D
:1024B0000E94330F64E670E080E090E00E94E7073E
:1024C00061EE72E08DED94E00E94330F64E670E0FF
:1024D00080E090E00E94E70761EE72E08DED94E00D
:1024E0000E94330F64E670E080E090E00E94E7070E
:1024F00061EE72E08DED94E00E94330F60E080E0C9
:102500000E94C50E6FE672E08DED94E00E94330FDD
:1025100061E080E00E94C50E64E872E08DED94E019
:102520000E94330F62E080E00E94C50E64E872E012
:102530008DED94E00E94330F63E080E00E94C50EB1
:102540006FE672E08DED94E00E94330F61E081E070
:102550000E94C50E64EF71E080E090E00E94E70702
:1025600061EA72E08DED94E00E94330F62E370E067
:1025700080E090E00E94E70763EA72E08DED94E06E
:102580000E94330F62E370E080E090E00E94E70772
:1025900065EA72E08DED94E00E94330F62E370E033
:1025A00080E090E00E94E70767EA72E08DED94E03A
:1025B0000E94330F62E370E080E090E00E94E70742
:1025C00069EA72E08DED94E00E94330F62E370E0FF
:1025D00080E090E00E94E7076BEA72E08DED94E006
:1025E0000E94330F62E370E080E090E00E94E70712
:1025F00063EA72E08DED94E00E94330F62E370E0D5
:1026000080E090E00E94E70761EE72E08DED94E0DB
:102610000E94330F62E370E080E090E00E94E707E1
:102620006DEA72E08DED94E00E94330F62E370E09A
:1026300080E090E00E94E7076FEA72E08DED94E0A1
:102640000E94330F62E370E080E090E00E94E707B1
:1026500061EB72E08DED94E00E94330F62E370E075
:1026600080E090E00E94E70763EB72E08DED94E07C
:102670000E94330F62E370E080E090E00E94E70781
:102680006BEA72E08DED94E00E94330F62E370E03C
:1026900080E090E00E94E70761EB72E08DED94E04E
:1026A0000E94330F62E370E080E090E00E94E70751
:1026B00065EB72E08DED94E00E94330F62E370E011
:1026C00080E090E00E94E70767EA72E08DED94E019
:1026D0000E94330F62E370E080E090E00E94E70721
:1026E00069EA72E08DED94E00E94330F62E370E0DE
:1026F00080E090E00E94E70764EF72E08DED94E0E7
:102700000E94330F61E081E00E94C50E68EE73E025
:1027100080E090E00E94E70762E370E080E090E0F4
:102720000E94E70761EE72E08DED94E00E94330FA6
:1027300062E370E080E090E00E94E70761EE72E003
:102740008DED94E00E94330F62E370E080E090E052
:102750000E94E70761EE72E08DED94E00E94330F76
:1027600062E370E080E090E00E94E70761EE72E0D3
:102770008DED94E00E94330F62E370E080E090E022
:102780000E94E70761EE72E08DED94E00E94330F46
:1027900062E370E080E090E00E94E70761EE72E0A3
:1027A0008DED94E00E94330F62E370E080E090E0F2
:1027B0000E94E70761EE72E08DED94E00E94330F16
:1027C00062E370E080E090E00E94E70761EE72E073
:1027D0008DED94E00E94330F62E370E080E090E0C2
:1027E0000E94E70761EE72E08DED94E00E94330FE6
:1027F00062E370E080E090E00E94E70761EE72E043
:102800008DED94E00E94330F62E370E080E090E091
:102810000E94E70761EE72E08DED94E00E94330FB5
:1028200062E370E080E090E00E94E70761EE72E012
:102830008DED94E00E94330F62E370E080E090E061
:102840000E94E70761EE72E08DED94E00E94330F85
:1028500062E370E080E090E00E94E70761EE72E0E2
:102860008DED94E00E94330F62E370E080E090E031
:102870000E94E70761EE72E08DED94E00E94330F55
:1028800062E370E080E090E00E94E70761EE72E0B2
:102890008DED94E00E94330F62E370E080E090E001
:1028A0000E94E70761EE72E08DED94E00E94330F25
:1028B00062E370E080E090E00E94E70761EE72E082
:1028C0008DED94E00E94330F87EB92E00E94200F81
:1028D00082E5E82E84E0F82E00E811E063ED72E076
:1028E0008AEA93E00E94330F40E251EA67E070E029
:1028F0008BE693E00E946E07892B59F483EE92E0F9
:102900000E94200F64EF71E080E090E00E94E707F2
:10291000E5CFD701E02F1D92EA95E9F710924D041B
:1029200068EE77E08BE693E00E9444090E94830AF8
:10293000892B71F410934D0440E151EF6AED78E179
:102940008BE693E00E9434090E94830A892BB1F23E
:102950008CEE92E00E94200F0E941D0E60E080E04D
:102960000E94C50E66EF72E08DED94E00E94330F79
:1029700061E080E00E94C50E66E073E08DED94E0BA
:102980000E94330F62E080E00E94C50E66E173E0B2
:102990008DED94E00E94330F63E080E00E94C50E4D
:1029A00067E273E08DED94E00E94330F00E010E0E9
:1029B00080914603909147038230910509F4BAC192
:1029C00054F40097D1F0019709F4AAC1109247037B
:1029D000109246031BC08430910509F4BFC10CF46A
:1029E000B3C1059799F78CE50E94C00A0E94F818B8
:1029F000709355036093540309C085E00E94C00A98
:102A00000E94F81870935703609356038091460311
:102A1000909147030196909347038093460360E0AB
:102A200086E00E94C50E40915A0350915B0360916D
:102A30005C0370915D03CE0101960E94350FCE01BB
:102A400001960E944608CE0101960E94DE0E61E0CA
:102A500086E00E94C50E6091580370915903072EBD
:102A6000000C880B990B0E94BA16AB01BC01CE0179
:102A700001960E94350FCE0101960E944608CE01B4
:102A800001960E94DE0E62E086E00E94C50E609113
:102A9000560370915703072E000C880B990B0E9468
:102AA000BA16AB01BC01CE0101960E94350FCE01D2
:102AB00001960E944608CE0101960E94DE0E63E058
:102AC00086E00E94C50E6091540370915503072E55
:102AD000000C880B990B0E94BA16AB01BC01CE0109
:102AE00001960E94350FCE0101960E944608CE0144
:102AF00001960E94DE0E60E081E10E94C50E8DE02D
:102B00000E94C00A60935A0370935B0380935C0336
:102B100090935D032091D6043091D7044091D8045E
:102B20005091D9042F83388749875A878091DC04D4
:102B3000C12CD12C76018823A9F0E091DA04F09120
:102B4000DB040995C090D204D090D304E090D40463
:102B5000F090D5049B01AC012C193D094E095F0989
:102B600069017A0180905A0390905B03A0905C0306
:102B7000B0905D0320E030E04AE754E4C501B401C1
:102B80000E94F5162B013C0120E030E04AE754E4B6
:102B9000609148037091490380914A0390914B03DF
:102BA0000E94F5169B01AC01C301B2010E941918E5
:102BB0002B013C018F819885A985BA85C80ED91E45
:102BC000EA1EFB1EB601DD0C880B990B0E94BA169B
:102BD0009B01AC01C301B2010E9486180E94F81843
:102BE0007093530360935203809248039092490379
:102BF000A0924A03B0924B03E091DA04F091DB0417
:102C000009956093D2047093D3048093D404909375
:102C1000D5041092D6041092D7041092D8041092C2
:102C2000D90481E08093DC046091520370915303D6
:102C3000072E000C880B990B0E94BA16AB01BC0141
:102C4000CE0101960E94350FCE0101960E944608E2
:102C5000CE0101960E94DE0E61E081E10E94C50E68
:102C60006091500370915103072E000C880B990B53
:102C70000E94BA16AB01BC01CE0101960E94350F2D
:102C8000CE0101960E944608CE0101960E94DE0EFA
:102C900062E081E10E94C50E60914E0370914F0386
:102CA000072E000C880B990B0E94BA16AB01BC01D1
:102CB000CE0101960E94350FCE0101960E94460872
:102CC000CE0101960E94DE0E63E081E10E94C50EF6
:102CD00060914C0370914D03072E000C880B990BEB
:102CE0000E94BA16AB01BC01CE0101960E94350FBD
:102CF000CE0101960E944608CE0101960E94DE0E8A
:102D000087E393E00E94200F0115110509F450CECE
:102D10000E948C08882309F44BCE0E94000048CE04
:102D20008FE00E94C00A0E94F818709359036093C4
:102D300058036CCE80E10E94C00A0E94F81870937C
:102D400051036093500362CE83E30E94C00A0E9445
:102D5000F81870934F0360934E0358CE8CE30E9493
:102D6000C00A0E94F81870934D0360934C034ECE36
:102D7000E89409C097FB3EF4909580957095619515
:102D80007F4F8F4F9F4F9923A9F0F92F96E9BB27CB
:102D90009395F695879577956795B795F111F8CF47
:102DA000FAF4BB0F11F460FF1BC06F5F7F4F8F4FB2
:102DB0009F4F16C0882311F096E911C0772321F0A8
:102DC0009EE8872F762F05C0662371F096E8862F40
:102DD00070E060E02AF09A95660F771F881FDAF797
:102DE000880F9695879597F908950E9408170C9477
:102DF00079170E946B1738F00E94721720F0952304
:102E000011F00C9462170C94681711240C94AD17F0
:102E10000E948A1770F3959FC1F3950F50E0551FDC
:102E2000629FF001729FBB27F00DB11D639FAA271F
:102E3000F00DB11DAA1F649F6627B00DA11D661F6E
:102E4000829F2227B00DA11D621F739FB00DA11D8F
:102E5000621F839FA00D611D221F749F3327A00D49
:102E6000611D231F849F600D211D822F762F6A2FE5
:102E700011249F5750409AF0F1F088234AF0EE0F4A
:102E8000FF1FBB1F661F771F881F91505040A9F777
:102E90009E3F510580F00C9462170C94AD175F3F74
:102EA000E4F3983ED4F3869577956795B795F795B3
:102EB000E7959F5FC1F7FE2B880F911D969587952B
:102EC00097F9089597F99F6780E870E060E00895AA
:102ED0009FEF80EC089500240A9416161706180632
:102EE0000906089500240A9412161306140605060E
:102EF0000895092E0394000C11F4882352F0BB0F9F
:102F000040F4BF2B11F460FF04C06F5F7F4F8F4F01
:102F10009F4F089557FD9058440F551F59F05F3F3C
:102F200071F04795880F97FB991F61F09F3F79F0EB
:102F300087950895121613061406551FF2CF46956D
:102F4000F1DF08C0161617061806991FF1CF8695EF
:102F50007105610508940895E894BB2766277727D3
:102F6000CB0197F908952F923F924F925F926F9203
:102F70007F928F929F92AF92BF92CF92DF92EF9209
:102F8000FF920F931F93CF93DF93CDB7DEB7CA1B8A
:102F9000DB0B0FB6F894DEBF0FBECDBF09942A88B5
:102FA000398848885F846E847D848C849B84AA845D
:102FB000B984C884DF80EE80FD800C811B81AA81EA
:102FC000B981CE0FD11D0FB6F894DEBF0FBECDBFB5
:102FD000ED010895A1E21A2EAA1BBB1BFD010DC035
:102FE000AA1FBB1FEE1FFF1FA217B307E407F507B9
:102FF00020F0A21BB30BE40BF50B661F771F881F95
:10300000991F1A9469F760957095809590959B012A
:10301000AC01BD01CF010895EE0FFF1F0590F491A3
:10302000E02D09946927962769277827872778272D
:1030300008955058BB27AA270E9431180C9479177D
:103040000E946B1738F00E94721720F039F49F3FEE
:1030500019F426F40C9468170EF4E095E7FB0C9431
:103060006217E92F0E948A1758F3BA17620773078D
:103070008407950720F079F4A6F50C94AC170EF4AC
:10308000E0950B2EBA2FA02D0B01B90190010C0178
:10309000CA01A0011124FF27591B99F0593F50F490
:1030A000503E68F11A16F040A22F232F342F4427E8
:1030B000585FF3CF469537952795A795F0405395E0
:1030C000C9F77EF41F16BA0B620B730B840BBAF0B0
:1030D0009150A1F0FF0FBB1F661F771F881FC2F71B
:1030E0000EC0BA0F621F731F841F48F4879577952F
:1030F0006795B795F7959E3F08F0B0CF9395880FE9
:1031000008F09927EE0F9795879508950E949A18D1
:103110000C9479170E94721758F00E946B1740F0B8
:1031200029F45F3F29F00C94621751110C94AD17EC
:103130000C9468170E948A1768F39923B1F35523FA
:1031400091F3951B550BBB27AA27621773078407BA
:1031500038F09F5F5F4F220F331F441FAA1FA9F350
:1031600035D00E2E3AF0E0E832D091505040E6953E
:10317000001CCAF72BD0FE2F29D0660F771F881F9F
:10318000BB1F261737074807AB07B0E809F0BB0B92
:10319000802DBF01FF2793585F4F3AF09E3F5105A6
:1031A00078F00C9462170C94AD175F3FE4F3983EEF
:1031B000D4F3869577956795B795F7959F5FC9F78F
:1031C000880F911D9695879597F90895E1E0660F10
:1031D000771F881FBB1F621773078407BA0720F089
:1031E000621B730B840BBA0BEE1F88F7E0950895F2
:1031F0000E94FF186894B1110C94AD1708950E94B5
:10320000921788F09F5798F0B92F9927B751B0F0CF
:10321000E1F0660F771F881F991F1AF0BA95C9F75A
:1032200014C0B13091F00E94AC17B1E008950C9435
:10323000AC17672F782F8827B85F39F0B93FCCF3E8
:10324000869577956795B395D9F73EF490958095D7
:10325000709561957F4F8F4F9F4F08950F931F93E8
:10326000CF93DF938230910510F482E090E0E091FB
:10327000F704F091F80430E020E0B0E0A0E03097EF
:1032800099F42115310509F44AC0281B390B243063
:103290003105D8F58A819B816115710589F1FB01A2
:1032A00093838283FE0111C0408151810281138189
:1032B00048175907E0F04817590799F4109761F03B
:1032C00012960C93129713961C933296CF01DF91AE
:1032D000CF911F910F9108950093F7041093F80474
:1032E000F4CF2115310551F04217530738F0A901E9
:1032F000DB019A01BD01DF01F801C1CFEF01F9CF78
:103300009093F8048093F704CDCFFE01E20FF31FF2
:10331000819391932250310939832883D7CF20910B
:10332000F5043091F604232B41F4209106013091ED
:1033300007013093F6042093F504209104013091A5
:1033400005012115310541F42DB73EB74091080123
:1033500050910901241B350BE091F504F091F6041E
:10336000E217F307A0F42E1B3F0B2817390778F05C
:10337000AC014E5F5F4F2417350748F04E0F5F1FBB
:103380005093F6044093F504819391939FCFF0E01E
:10339000E0E09CCFCF93DF930097E9F0FC013297F8
:1033A00013821282A091F704B091F804ED0130E08D
:1033B00020E01097A1F420813181820F931F20918A
:1033C000F5043091F6042817390709F061C0F0932D
:1033D000F604E093F504DF91CF910895EA01CE174A
:1033E000DF07E8F54A815B819E0141155105B1F780
:1033F000E901FB83EA8349915991C40FD51FEC176A
:10340000FD0761F4808191810296840F951FE90187
:1034100099838883828193819B838A83F0E0E0E0B3
:1034200012968D919C9113970097B9F52D913C912F
:103430001197CD010296820F931F2091F5043091D0
:10344000F6042817390739F6309751F51092F80429
:103450001092F704B093F604A093F504BCCFD38385
:10346000C28340815181840F951FC817D90761F429
:103470004E5F5F4F88819981480F591F5183408368
:103480008A819B81938382832115310509F0B0CF16
:10349000F093F804E093F7049ECFFD01DC01C0CF68
:1034A00013821282D7CFB0E0A0E0E9E5FAE10C94F4
:1034B000B5178C01009751F4CB010E942E198C0195
:1034C000C801CDB7DEB7E0E10C94D117FC01E60FDF
:1034D000F71F9C0122503109E217F30708F49DC041
:1034E000D901CD91DC911197C617D70798F0C53057
:1034F000D10530F3CE0104978617970708F3C61B52
:10350000D70B2297C193D1936D937C93CF010E94E7
:10351000CA19D6CF5B01AC1ABD0A4C018C0E9D1E98
:10352000A091F704B091F804512C412CF12CE12C1E
:10353000109731F58091F5049091F604881599055E
:1035400009F05CC04616570608F058C08091040187
:1035500090910501009741F48DB79EB74091080105
:1035600050910901841B950BE817F90708F055C025
:10357000F093F604E093F504F90171836083A0CF22
:103580008D919C91119712966C90129713967C9046
:103590001397A815B90559F56C0142E0C40ED11C6A
:1035A000CA14DB0420F1AC014A195B09DA01129656
:1035B000159780F06282738251834083D9016D93A5
:1035C0007C93E114F10471F0D7011396FC93EE9310
:1035D000129776CF22968C0F9D1FF90191838083DD
:1035E000F301EFCFF093F804E093F70469CF4816A6
:1035F000590608F42C017D01D3019ACFCB010E941A
:103600002E197C01009749F0AE01B8010E94101BF1
:10361000C8010E94CA19870153CF10E000E050CFC3
:10362000FB01DC0102C001900D9241505040D8F7DF
:103630000895FB01DC0101900D920020E1F708954F
:10364000AEE0B0E0E6E2FBE10C94C1170D891E8903
:1036500086E08C831A8309838FEF9FE79E838D8397
:10366000AE01475E5F4F6F89788DCE0101960E9453
:10367000431B2F813885020F131FF80110822E96ED
:10368000E4E00C94DD17ABE0B0E0E9E4FBE10C947E
:10369000B3177C013B018A01FC01178216828381EA
:1036A00081FFC8C1CE0101965C01F7019381F3014E
:1036B00093FD859193FF81913F01882309F453C1C4
:1036C000853239F493FD859193FF81913F018532D5
:1036D00029F4B70190E00E94331DE7CF912C212CF3
:1036E000312CFFE1F31538F08B3211F190F4803278
:1036F00009F1833229F137FC3CC020ED280F2A3034
:1037000050F536FE20C08AE0989E200D1124922E9E
:1037100006C08D3291F0803371F7689430F8F30170
:1037200093FD859193FF81913F018111DACF21C0F3
:10373000689431F8689432F8F2CF689433F8EFCF98
:10374000689434F8ECCFEAE02E9E200D1124222E4E
:10375000689435F8E4CF8E3229F436FC04C16894BD
:1037600036F8DDCF8C3619F4689437F8D8CF883620
:10377000B1F2982F9F7D95549330E0F08336A1F1FC
:103780008337C1F1833509F063C02801F2E04F0EA1
:10379000511CF801C080D180692D70E036FC02C058
:1037A0006FEF7FEFC6010E941D1D4C01689437F832
:1037B00082010AC00C5F1F4FFFE3F98388248394C2
:1037C000912C6501E89437F833FE2DC0522C8114FA
:1037D000910471F5552009F468CFB70180E290E0BB
:1037E0000E94331D5A94F6CFF801808189830E5FC1
:1037F0001F4FE4CF2801F2E04F0E511CF801C080AA
:10380000D180692D70E036FC02C06FEF7FEFC601FA
:103810000E94281D4C018201D5CFB70180E290E0C3
:103820000E94331D2A942814190409F0B0F7CECF52
:10383000F60137FC859137FE81916F01B70190E069
:103840000E94331D51105A94F1E08F1A9108BFCF96
:10385000843619F0893609F077C0F80137FE6BC05D
:1038600060817181828193810C5F1F4FF32DFF7600
:103870003F2E97FF09C090958095709561957F4F79
:103880008F4F9F4F689437F82AE030E0A5010E94DF
:10389000631DC82ECA188C2C432C36FE0CC0E8942D
:1038A00040F8C91440F434FE05C032FC03C0F32DC7
:1038B000FE7E4F2E892C44FE95C0FE01EC0DF11DBD
:1038C0008081803309F087C0242D297E422E842DEB
:1038D0008870582E43FC95C040FE8FC09C2C8214EB
:1038E00018F42C0C922C981844FE91C0B70180E378
:1038F00090E00E94331D42FE09C088E790E041FE3F
:1039000002C088E590E0B7010E94331DC91408F495
:103910008AC0CA94D12C9FEFC91AD90ACA0CDB1CE1
:10392000F60182916F01B70190E00E94331DAC1443
:10393000BD04B1F74FCF60817181072E000C880B59
:10394000990B0E5F1F4F92CFD32CE894D4F82AE046
:1039500030E0853739F1232D297FD22E8F3601F1C2
:1039600048F48835A9F0F701868197812B96E2E12A
:103970000C94CF17803749F08837A9F7D4FE02C0DE
:103980006894D2F820E130E00DC06894D4F8F6CF06
:1039900034FE03C0822F8660D82E20E132E002C0C0
:1039A00028E030E0F801D7FE0FC06081718182818C
:1039B00093810C5F1F4FA5010E94631DC82ECA187A
:1039C0003D2CE89437F867CF6081718190E080E00A
:1039D0000E5F1F4FF0CF42FC02C0839478CF8394D8
:1039E000839475CF842D867809F471CFF6CFB70113
:1039F00080E290E00E94331D83948214C0F3512C26
:103A000073CF522C5818821408F46ECFF8CF842D3F
:103A1000867809F47BCF8BE241FE80E247FC8DE2A1
:103A2000B70190E071CFB70180E390E00E94331DB1
:103A30009A946CCF8FEF9FEF99CFFC010590615066
:103A400070400110D8F7809590958E0F9F1F0895B4
:103A5000FC016150704001900110D8F7809590955D
:103A60008E0F9F1F08950F931F93CF93DF93182FEF
:103A7000092FEB018B8181FD09C01FEF0FEF812F13
:103A8000902FDF91CF911F910F91089582FF14C065
:103A90002E813F818C819D81281739073CF4E88174
:103AA000F981CF0101969983888310838E819F814C
:103AB00001969F838E83E3CFE885F985812F099551
:103AC000892BA1F3DACFFA01AA27283051F120314E
:103AD00081F1E8946F936E7F6E5F7F4F8F4F9F4FA2
:103AE000AF4FB1E03ED0B4E03CD0670F781F891FE4
:103AF0009A1FA11D680F791F8A1F911DA11D6A0FB2
:103B0000711D811D911DA11D20D009F468943F9164
:103B10002AE0269F11243019305D3193DEF6CF0163
:103B20000895462F4770405D4193B3E00FD0C9F729
:103B3000F6CF462F4F70405D4A3318F0495D31FD96
:103B40004052419302D0A9F7EACFB4E0A6959795E9
:103B5000879577956795BA95C9F7009761057105BF
:103B600008959B01AC010A2E069457954795379509
:103B70002795BA95C9F7620F731F841F951FA01D63
:063B80000895F894FFCF48
:103B8600C300C3000000F904800000127A0040421E
:103B96000F0000800000127A0020A10700009002AA
:103BA60000127A0090D0030000B10500127A00409E
:103BB6000D030000B40600127A0048E8010001B1C6
:103BC6000500127A00A086010001B40600127A00F0
:103BD6008038010001BF0700127A0050C3000003BD
:103BE600B40600127A00409C000003BF0700127A58
:103BF60000204E000007BF0700127A0010270000C1
:103C06000FBF0700127A00881300001FBF070024A9
:103C1600F40040420F0000D0820024F40020A107E7
:103C26000000F0860024F40090D0030041F18500E6
:103C360024F400400D030001FA870024F40048E84C
:103C4600010003F0860024F400A086010003FA8731
:103C56000024F4008038010003FF870024F400509C
:103C6600C3000007FA870024F400409C000007FF09
:103C7600870024F400204E00000FFF870024F40084
:103C8600102700001FFF870024F400881300003F60
:103C9600FF87000000005501E80E3009D200C6007B
:103CA600390122016E07D300E205EB04D906440967
:103CB6004E043409480333031E030903F402C50006
:103CC600DA0E00000000C20819084F080F09800824
:103CD6005E087208000000003309E60E00000000CE
:103CE600D40E190830092F090D0A00253364002D5A
:103CF6002D2D2D2D2D2D2D2D2D2D2D2D2D2D2D2DEE
:103D06002D2D2D007C20202020202020202020204A
:103D1600202020202020207C0054004F0059004104
:103D260000570065006C0063006F006D0047006976
:103D36000061006E007200546F796F7461205961E2
:103D4600726973202D204F4244322043414E206237
:103D5600757300436F6E6E657373696F6E652E2E95
:103D66002E200066616C6C69746F21007375636345
:103D76006573736F210053706565643A20202020B7
:103D86007C4163633A00412F696E3A20202020204F
:103D96007C4D41463A00436F6F6C3A20202020202C
:103DA6007C4261726F3A004F696C3A2020202020D5
:0C3DB600207C4361743A006C6F6F700059
:00000001FF
